:1000000028150020F1010000F9010000FB010000AB

:1000100000000000000000000000000000000000E0

:10002000000000000000000000000000FD010000D2

:100030000000000000000000FF01000001020000BD

:100040000000000079040000030200000302000029

:100050009904000065040000E5040000FD040000B0

:10006000C9050000D9050000B1040000FD0500002D

:10007000030200008903000095040000E50600006B

:100080008503000031060000ED03000007040000B6

:100090001F0400003B0400000302000000000000F9

:1000A0000000000000000000000000000000000050

:1000B0000000000000000000000000000000000040

:1000C000044885460BF00AFE00480047690200001C

:1000D000C046C0462815002070B5374A10690F2168

:1000E00009028843106134498031086B0002FCD555

:1000F000334E32487310334C334DB04208DC001994

:1001000011D0401911D06B10D8420AD12F4B0DE0FD

:10011000581927D0001927D02D4BD84201D12D4B8B

:1001200004E02D4B02E02D4B00E02D4B0B60224BE9

:100130001069D0330124A402204310611069A41077

:1001400020431061186822049043020202D42D2239

:10015000520410434322520610431860086B4002B9

:10016000FCD570BD1F4BE1E71F4BDFE710B5124810

:100170000069C1B21148491C0BF020FD1B49086001

:1001800010BD10B50C4900280ED002280CD089698A

:10019000C1400BD001290BD002290BD008211348F4

:1001A00000680BF00BFD10BDC969F1E70121F6E70E

:1001B0000221F4E70421F2E700000150006CDC02A8

:1001C0000048E80100E548FF00F7C2FFB10802F06F

:1001D00000DC0BFFB10308F0B10608F0B10C02F02F

:1001E000B10C08F0B10402F0B10408F000000020E6

:1001F0000448804704480047FEE7FEE7FEE7FEE7C5

:10020000FEE7FEE7D9000000C10000004448006896

:10021000052806D300F0A5FD0146424A42A00BF096

:10022000ABFD484C7D25ED00206805F0B3FE0028AD

:1002300003D0284605F092FE20600AF0C3FF0BF0C1

:100240008CF80BF083FC0BF07AF90AF0F3FE0AF05D

:1002500063FA0BF0ADFA0BF05DFA0BF023FC0BF038

:100260001BFB0BF049FADFE7FFF780FF00F072FDA0

:100270000BF008FC2A4D2868052807D300F071FD13

:10028000284A0146093230A00BF076FD00F0E2FC6E

:1002900000F01DF82868052807D300F062FD214A08

:1002A00001461F3228A00BF067FD00F0A5FC0BF003

:1002B00027FA012428686407052806D300F051FDB9

:1002C0002278014627A00BF057FDFFF79FFF08B5E6

:1002D00013480068052807D300F043FD114A014682

:1002E000153219A00BF048FD0AF0D6FE0AF03EFFC9

:1002F0000AF0EDFF0BF0ECFB0BF0FDF80AF0F7F95C

:1003000008480221801E0068009068460AF011FA31

:100310000BF02BFA0AF011FD0BF0A7FA08BD000054

:100320003C00002096C200001B5B313B33376D5B05

:1003300025735D20286D61696E29205B25735D0D35

:100340000A000000040000201B5B313B33376D5B6B

:1003500025735D20286D61696E29205B25735D0D15

:100360000A0000001B5B313B33376D5B25735D205A

:10037000286D61696E29202074657374205B257572

:100380005D0D0A007047000010B5164AD0680221C2

:1003900083071548002B06DAD3680B43D360036844

:1003A000012423430360D3699B0705D5D3690B431D

:1003B000D36103680B430360D36A9B0706D5D36AF6

:1003C0000B43D3620368042423430360D36B9B076E

:1003D00006D5D36B0B43D363016808221143016038

:1003E00010BD0000800010400800002010B505215D

:1003F00009074A6A1748026002688A620168002099

:1004000001F0D4FC10BD10B513494A6A114842608E

:1004100042688A624168012001F0C8FC10BD10B535

:100420000E494A6A0B48826082688A6281680220AB

:1004300001F0BCFC06F0C1FE10BD10B508494A6AC7

:100440000448C260C2688A62C168032001F0AEFC41

:1004500010BD000038010020004000500080005016

:1004600000C00050012189074A6808484260022202

:100470008A6101210170704705494A68034882601A

:1004800002228A6101214170704700000C000020A7

:10049000004002407047000003480168491C0160A9

:1004A00002488168C1607047180000204080054004

:1004B00010B50949C86840070CD508480268142AD5

:1004C00003D28A68064B04681A550268521C0260FF

:1004D0000220086210BD0000000004401C00002043

:1004E0004801002010B53549FF20086034480168F4

:1004F000491C0160002001F0D7FC10BD10B506F0CA

:10050000DBFD10BD416802221143416041680122B8

:1005100011434160704702214160704710B50724C4

:10052000002300290BD0012904D0022904D003297B

:1005300004D004E0032302E0062300E009239A40EC

:1005400041699C40A1431143416110BDF8B5044687

:100550001A481F4616460D46844201D11C2000E071

:100560001E20FFF70EFE17490BF028FB78430A21E7

:100570000BF024FB00212161002D06D0012D06D0B7

:10058000022D06D0032D06D006E0A06104E0E06154

:1005900002E0206200E06062324629462046FFF712

:1005A000BDFF606802210843606060680121084364

:1005B0006060F8BD0022B1E70322AFE700C0004051

:1005C00020000020A086010007480168491C016046

:1005D0000649FF200860704703484168491C416094

:1005E0000349FF20086070472400002000400140BC

:1005F00000800140C2688A43C260704710B5334C26

:10060000606AC0070CD032484168002902D02068D7

:10061000C0B288472068C1B2002001F087FC10BD3D

:10062000606A4006FBD5E16802208143E16010BDAD

:1006300010B5284C606AC0070CD025488168002995

:1006400002D02068C0B288472068C1B2012001F002

:100650006DFC10BD606A4006FBD5E1680220814355

:10066000E16010BDC1607047F8B504461748184EE8

:1006700015460F46844204D11020FFF782FD7560B5

:1006800003E01620FFF77DFDB56039460BF096FAC2

:10069000A06003202062F8BD70B500230125044648

:1006A000AD0609E0C85C20602846666A760602D47A

:1006B000401EFAD170BD5B1C9342F3D3104670BD4F

:1006C00010B5C0B206F0AFFA012010BD00800040A6

:1006D0002C000020000003402548816801221143BE

:1006E0008160704710B502F0F3FEFFF7F5FF10BD13

:1006F0001F49204808607047F0B51D4B1E4C1C6018

:1007000000245C60022900D2022102240F25000788

:100710003F272D02000D3F04A603012A17D0174AD8

:100720001660BFF34F8FBFF36F8F5A68A2435A60B2

:100730005A68AA4302435A6058688906B843890A2E

:10074000084358605968012001435960F0BD5A6858

:1007500022435A605A68AA4302435A60586889067D

:10076000B843890A08435860044880380660E9E7BE

:1007700000400040A55A00003CC3966980E100E0BB

:100780002A49294A0A60486027484038C8602848F2

:1007900002E0CA68D20704D0401EFAD20020C0434B

:1007A000704700207047214980314A6892089200C2

:1007B000012803D0002002434A6070470220FAE774

:1007C0000B4610B5014618460EF01AFC10BD18482D

:1007D000164902E0CA68D20703D0401EFAD20020B0

:1007E00070470120704770B50C460F490F4D2039F6

:1007F0001646296068600023B34214D261782078DD

:1008000009020818A17809040818E17809060818EF

:10081000A86005484038E860241DFFF7D8FF00288D

:1008200001D01B1DE8E770BD410000E800C0034097

:10083000FFFFFF00F8B51E4615460F46040018D00E

:10084000002F16D02C210BF0D6F9A0780007000F4E

:100850008030A070A760E078002D0BD04006400EDD

:10086000BF210840E907490E0843C0082671C000AF

:10087000E070F8BD80210843F2E7002804D0072982

:1008800002D289000818C260704770B50446A1689A

:10089000007988470146E078420702D02288521C3E

:1008A0002280C309C7228B420FD00623D8410123DF

:1008B0005B07C0181A23D84183065B0FE070022B38

:1008C00005D34006400EC90108431040E070C0B295

:1008D0004107490F00250B000BF07AFA050421436C

:1008E0007F9EB600C1094006C00F8142A07811D199

:1008F0000007000FA070E168002901D0204688475A

:100900002580A07800090001401CA070E0787FE0FD

:10091000E07070BD0007000F8030A07070BDC1098D

:100920004006C00F81420AD0A0780007000F1030A7

:10093000A0702169002962D0204688475FE02088A6

:100940006428EBD9A0780007000F5030A070216A0E

:10095000002901D020468847E078C008C000001D6B

:10096000D6E7C1094006C00F81421FD1A078000719

:10097000000FA070E168002901D020468847A078C8

:100980000107090F0F2906D20421C8418906401822

:100990001C21C841A0706169002901D02046884708

:1009A0002580E078C008C000C01CB1E720880A2874

:1009B000B4D9A0780007000F012802D0022804D083

:1009C00041E03030A070A16902E04030A070E169E0

:1009D000002938D02046884735E04206C109D20FA9

:1009E000914212D0A0780007000F1030A07021694A

:1009F000002901D02046884720880A2823D2258054

:100A0000E078C008C000801C82E721880A2985D9C7

:100A1000C008C000401C7BE7C1094006C00F8142EE

:100A2000A0780AD10007000F6030A070616A002929

:100A300000D173E72046884770BD0007000F1030D3

:100A4000A0702169C4E7E078C008C00060E7002812

:100A500003D0174B19680A4608E00120C0437047CD

:100A6000814202D10020C0437047896A0029F7D132

:100A70008262186000207047002807D00C4A08E006

:100A8000814204D1886A10600020886270470A465B

:100A9000283211680029F3D1704710B50448046862

:100AA00003E02046FFF7F1FEA46A002CF9D110BD47

:100AB000380000200023436083600160D108C90032

:100AC000C160704710B5044600F084F8002808D0D3

:100AD000012807D0A068410860684008814203D916

:100AE000081A10BDE06810BDE268401A101A10BD67

:100AF00070B515460E460446FFF7E4FFE168081A94

:100B00002ED0A84200D20546A06840080A1A2168E3

:100B1000AA420BD908182A4631460EF071FAA0688D

:100B2000C1074008C90F4019400016E008183146B7

:100B30000EF066FAA168E0684908401A2A1A81197D

:100B400020680EF05DFAA068012148404208E16883

:100B5000C007891A691A4900C00F01432846A160DD

:100B600070BD70B515460E460446FFF7ABFF002872

:100B70002FD0A84200D205466068E16840080A1AF2

:100B80002168AA420BD909182A4630460EF038FAD5

:100B90006068C1074008C90F4019400016E00918F5

:100BA00030460EF02DFA6168E0684908401A2A1AAA

:100BB000801921680EF024FA60680121484042083B

:100BC000E168C007891A691A4900C00F0143284625

:100BD000616070BD416880684A0843089A4209D143

:100BE000C907C007C90FC00F814201D1002070475B

:100BF000012070470220704710B50648006805289C

:100C000007D300F0AEF801460123034A03480BF076

:100C1000B3F810BD3C00002039300000CCC7000004

:100C2000002206E00021491C89B20629FBD3521C90

:100C300092B28242F6D3704730B500237D25044638

:100C4000ED0004E02846FFF7EBFF5B1C9BB2A342DC

:100C5000F8D330BD0148892101607047C0000150C0

:100C6000F8B50C46254916460968884245D824A19E

:100C700003000BF0ADF8060D0406080A0C0D22A1C6

:100C800006E023A104E024A102E025A100E026A1C2

:100C900027A00BF071F800F064F8014625A00BF0D6

:100CA0006BF800252F4621E0217824A00BF064F892

:100CB000641C6D1C402D18D322A00BF05DF800259C

:100CC000403C2178084620385E2803D81EA00BF04F

:100CD00053F802E01DA00BF04FF8641C6D1C402D72

:100CE000EFD300251AA00BF047F87F1CB742DBD3E7

:100CF000002D02D016A00BF03FF8F8BD3C000020FC

:100D00001B5B306D000000001B5B313B33356D0019

:100D10001B5B313B33316D001B5B313B33336D006B

:100D20001B5B313B33326D001B5B313B33376D0056

:100D3000257300005B25735D000000002025303224

:100D400058000000207C2000256300002E000000D9

:100D50000D0A000010B508490520086005F056FF8F

:100D600010BD10B505F03BF9034604A20C21044860

:100D70000BF012F8024810BD3C000020256C7500F5

:100D80005C01002075214902124A10B5411A9142B6

:100D900002D31149884201D3FFF7F2FC10BD10B510

:100DA00075235B020B4CC31AA34202D30A4B984231

:100DB00001D3FFF705FD10BD10B575235B02054C8F

:100DC000C31AA34202D3044B984201D3FFF70BFD91

:100DD00010BD0000FF050000100410000100FA48DB

:100DE00006D0012905D0022905D0032900D1F748F2

:100DF0007047F7487047F7487047014600B5012033

:100E00000B000AF0E5FF100A090B0D0F111315175F

:100E10001A1D202326292C0A022000BD042000BD13

:100E2000082000BD102000BD202000BD402000BDD6

:100E3000802000BDFF20013000BD0120400200BD28

:100E40000120800200BD0120C00200BD012000037E

:100E500000BD0120400300BD0120800300BD012032

:100E6000C00300BDF0B50E460024032513000AF0B0

:100E7000AFFF05201F0406082000022519E0012508

:100E800017E0032804D000280BD002280DD010E072

:100E9000012E02D0002E02D00BE00D2408E00C241D

:100EA00006E0032E05D10F2402E00B2E01D10E2403

:100EB0000025FFF793FF02463046FFF79EFFF0261E

:100EC000C14F33011901BA4274D1C70773D106E08B

:100ED000212C71D00A2C70D040E3D063F0E3870757

:100EE0006CD447071FD5012C69D051E1D06BB043BA

:100EF00010305AE3212C02D00A2C08D103E0D06B29

:100F0000B043203051E3D06BB04330304DE3D06B71

:100F1000B0434AE3D063F0E30A2C70D1D06B0321D5

:100F2000984309025FE3070710D5102C68D0142CF2

:100F3000FCD00A2C7AD00F2C79D01B2C78D0202C06

:100F400077D0D06B884361E340185FE3C7061DD5B7

:100F5000122C0BD0162C09D0212C0ED00A2C69D0C3

:100F6000D16B0F2000048143D163E7E3D06B0F21E5

:100F7000090488430121090477E3D16B0F200004A1

:100F8000814301204004E6E1D063D7E387061FD503

:100F9000132C08D0172C06D0212C11D00A2C6FD07E

:100FA000052C6ED06BE3D16B0F200005814301202F

:100FB00000050BE0D3E0D7E0BAE1DAE0E0E057E18A

:100FC000D16B0F200005814301204005081863E321

:100FD00047061FD5052C04D0212C09D0092C12D08E

:100FE00071E3D06B0F21090688430121090621E135

:100FF000D06B0F2109068843012149061AE1E0E27E

:1010000038E1D063AAE3D06B0F210906884303219E

:1010100009060FE1070610D5052C7BD0212C7AD0CC

:10102000092C79D0D06B00010009DEE124E16CE1EC

:10103000C3E15BE113E34018D7E1C70506D5082CEF

:101040006BD01F2C6AD0DAE1106497E3870510D5C6

:10105000082C02D01F2C04D007E0106CB0431030D5

:1010600005E0106CB043303001E0106CB043106408

:101070008CE3460508D5082C6FD01F2C6ED0F1E10B

:1010800033E1C0E0106489E303050AD5082C6ED073

:101090001F2C6DD001E0401801E0106C88431064F3

:1010A00084E3C10411D5072C75D01F2C04D0106C1B

:1010B0000F210904884306E0116C0F2000048143CE

:1010C000032000040818106478E3810413D5072C6A

:1010D00002D01F2C07D025E2116C0F2000058143A0

:1010E0000120000505E0116C0F200005814303205D

:1010F0000005081823E2410428D5072C0FD00B2C3B

:1011000014D0132C1BD0172C19D0106C0F210906EA

:10111000884312E009E109E1C1E174E178E1106C72

:101120000F21090688430121090605E0106C0F21F3

:101130000906884303210906401810644EE3106C29

:101140000F210906884301218906F5E7000473D5BC

:10115000106C00010009106448E386E18AE11C4F2D

:10116000BA4273D1C70709D0062C67D0B0E69CE11C

:10117000A0E1D06B00090001C01CAEE6870703D5D3

:10118000062C00D0B6E6B1E6460705D5032C6FD095

:10119000212C6ED0C0E6ABE1030706D5032C69D045

:1011A000212C68D00A2C67D0CBE6C1061BD5042CB5

:1011B00012D0092C00D0D3E6D16B0F20000481435C

:1011C00003200004C7E000000000005000C00050F1

:1011D0000040005000800050D16B0F20000481437C

:1011E00001200004B7E0810614D5042C04D00A2C99

:1011F0007BD0222C07D042E2D06B0F210905884317

:101200000121090547E2D16B0F2000058143012030

:101210008005DBE6410612D5042C00D1E1E60A2C5C

:1012200000D1F0E6232C6FD1D06B0F210906884343

:10123000012189064018E4E66FE207E092E1010629

:1012400072D5012C71D01D2C70D0EBE6F84FBA424C

:101250006DD1C70704D01D2C6AD00E2C69D07DE15A

:1012600087070ED51E2C00D149E60F2C05D04EE67F

:10127000AAE181E0CCE19FE041E0D06BB043403097

:1012800093E147071BD5EB48242C016B0ED00426B5

:10129000B1430163102C6FD0142C6DD0202C00D1E1

:1012A0003CE60C2C06D01A2C67D08AE1042421439A

:1012B000016386E1D06B01219843890293E107071E

:1012C00028D5DC48242C036B15D00426B3430363D4

:1012D000112C71D0152C6FD0202C10D00D2C14D0C7

:1012E000192C6AD0182C01D02BE6D7E1D06B88439B

:1012F0000321490328E604242343036321E6D06B3A

:101300008843032109031FE6DDE1D06B88430121F7

:10131000890319E6C70620D5122C00D12DE6162C1C

:10132000FCD00B2C06D147E726E24CE0DFE108E1D8

:101330001DE121E1012C08D0182C00D010E6D16B62

:101340000F2000048143A00305E0D16B0F200004AF

:10135000814305200004081816E687060ED5B54817

:10136000252C04D0036B02218B43036387E1016BBF

:1013700002231943016382E12BE130E147060CD5DA

:10138000AC48252C04D0036B02218B4303639AE104

:10139000016B02231943016395E1070627D5132C3E

:1013A00011D0172C0FD0092C79D00B2C11D0012C77

:1013B00015D0182C02D035E62FE133E1D06B0001B7

:1013C0000009A10637E6D06B0121000100090907D9

:1013D00031E6D06B01210001000989072BE6D06BB3

:1013E00001010520090900070818D063BEE1C705FF

:1013F00013D5262C7BD0012C05D0182C08D0106CCE

:101400000009000120E6106C00090001401C1BE6E9

:10141000106C00090001C01C16E6870511D585482F

:10142000242C016B09D0082399430163012C00D1BE

:1014300013E6182C00D018E613E6082319430163BD

:1014400013E646051CD57B48242C016B07D00826E3

:10145000B1430163012C08D0182C0BD002E0082402

:1014600021430163106C98430CE6106C9843FF30E5

:10147000013007E6106C032198430902401801E689

:10148000030526D5112C10D0152C0ED00A2C11D006

:101490000E2C14D01C2C17D0202C01D0FDE520E1FF

:1014A000106C884303214903F5E5106C8843012142

:1014B0000903F0E5106C884303210903EBE5106C88

:1014C000884301218903E6E5106C8843052109035F

:1014D000E1E5C10422D5032C0AD0212C0FD00A2C1F

:1014E00014D0116C0F2000048143116466E145E1C2

:1014F000116C0F200004814301200004E2E5106C10

:101500000F21090488430121490405E0106C0F21D3

:1015100009048843032109044018D4E5810472D5E5

:101520001D2C05D0116C0F200005814311644DE185

:10153000106C0F21090588430121490540181064EA

:1015400044E13D4FBA4272D1C7071ED0012C09D0E9

:101550001D2C0CD00C2C0FD0272C12D0D06B0009D6

:101560000001BAE4D06B00090001401CB5E4D06B67

:1015700000090001801CB0E4D06B00090001001DCF

:10158000ABE4D06B0F210843A7E487070FD5012CEC

:1015900000D1ABE41E2C00D1B1E40D2C00D16CE6DF

:1015A000272C00D0B3E4D06B3043D063AFE04607C4

:1015B0001ED5022C08D01D2C0BD0192C0FD0272C97

:1015C00013D0D06B9843A5E4D06B9843FF30013023

:1015D000A0E4D06B9843FF30FF3002309AE4D06B28

:1015E000052198430902401894E4D06B184391E414

:1015F000030723D5022C0BD01D2C0ED01A2C11D092

:10160000272C01D09DE4E7E0D06B0843D0638EE047

:10161000D06B88430121090396E4D06B88430121F4

:10162000490391E4D06B8843052109038CE465E00C

:10163000008000508000015000C00050C10616D547

:101640001E2C00D199E4102C09D0142C07D0272C83

:1016500000D085E4D06B0F210904084394E4D06BDB

:101660000F21090488430321090440188CE48106F2

:101670001BD51D2C09D0112C10D0152C0ED0D16BE0

:101680000F2000058143D16360E0D06B0F21090575

:101690008843012149054018D06357E0D16B0F20E2

:1016A000000581430320000590E4410610D5022C7B

:1016B00000D196E41D2C00D19AE4122C01D1A2E4B1

:1016C0001EE0162CFBD0D06B0F210906884398E44E

:1016D000010651D51E2C0AD0132C02D0172C00D095

:1016E000A0E4D06B0321000100090907A3E4D06B3B

:1016F00001210001000949079DE411E0C10704D060

:10170000906880088000284306E0810706D590682D

:101710000C218843A9006DE09060F0BD410704D51D

:10172000906830218843290164E0010704D590685E

:10173000C0218843A9015DE0C10605D59068032159

:1017400009028843290255E0810605D590680321E6

:1017500089028843A9024DE0410605D5906803211E

:1017600009038843290345E0010605D59068032154

:1017700089038843A9033DE0C10505D5906803218D

:1017800009048843290435E0810505D590680321C3

:1017900089048843A9042DE0410505D590680321FB

:1017A00009058843290525E0010505D59068032131

:1017B00089058843A9051DE0C10405D5906803216A

:1017C00009068843290615E0810405D590680321A0

:1017D00089068843A9060DE0410405D590680321D8

:1017E00009078843290705E0000496D59068800022

:1017F0008008A90708438FE710B5FFF733FB10BD3A

:1018000010B50B46FFF7EAFA04461846FFF7F5FA5B

:101810002168002A01D0014300E08143216010BD0E

:1018200000B50B46FFF7DAFA02461846FFF7E5FA6D

:101830005168014201D0012000BD002000BDF8B573

:101840000B46FFF7CBFA04461846FFF7D6FA0546D3

:10185000052070260007F749F74B3701002A09D009

:10186000012A6FD0032A6ED0042A21D184426BD181

:101870001220A1E1844201D112200BE08C4201D15F

:10188000132007E09C4201D1142003E0EB4884427E

:1018900002D1152000F0ECFAE80703D06069C00817

:1018A000C0000CE0A80704D56069B0432030606137

:1018B000F8BD680705D56069B843FF30FF30801C6C

:1018C000F5E7DF4829077DD4DE49EA066ED4DE4A13

:1018D000AB066CD46B0605D5616907200006814311

:1018E000100195E12B0606D56169072000078143A9

:1018F000012040078CE1EB0503D5A069C008C000BA

:101900000CE0AB0504D5A069B0432030A061F8BD60

:101910006B0505D5A069B843FF30FF30801CF5E7A3

:101920002B0505D5A269072109038A431018EDE7A5

:10193000E80471D4A80408D5A069072109058843E3

:101940008018E3E713E0A5E02AE1680406D5A16961

:1019500007200006814301204006A5E12804D6D5D2

:10196000A169072000078143012040079CE18442D0

:1019700001D112200BE08C4201D1132007E09C42E0

:1019800001D1142003E0AD48844202D1152000F0BB

:101990006FFAE80703D06069C008C0000DE0A8072F

:1019A00006D56069B043103081E70BE013E01BE01F

:1019B000680704D56069B843FF30401C77E7A34847

:1019C000290705D56269072109038A4310186EE7C4

:1019D0009F49EA0605D56269072000048243501832

:1019E00065E79C4AAB0605D5616907200005814380

:1019F00088185CE76B0606D56069072109068843ED

:101A00000121090613E12B0607D5606907210907A3

:101A10008843012109070AE11BE0EB0503D5A06912

:101A2000C008C0000AE0AB0503D5A069B043103080

:101A30006CE76B0504D5A069B843FF30401C65E72F

:101A40002B0504D5A1690722120391432CE1E80478

:101A500005D5A269072000048243501856E7A80460

:101A600005D5A16907200005814388184EE7680461

:101A700006D5A0690721090688430121090681E0EE

:101A8000280400D443E7A16907200007814301200F

:101A9000000709E1844201D112200BE08C4201D100

:101AA000132007E09C4201D1142003E063488442E4

:101AB00002D1152000F0DCF9E8076FD1A8076ED439

:101AC000680704D560690121B8438902AFE028079F

:101AD00006D561690720000381430120800397E058

:101AE000E80606D5616907200004814301208004CF

:101AF0008EE0A80606D56069072109058843012103

:101B0000890594E0680606D56169072000068143CF

:101B1000012080067CE0280606D5616907200007C1

:101B200081430120800773E0E80573D4A80572D4CF

:101B3000680504D5A0690121B843890222E028057F

:101B400006D5A0690721090388430121890319E00B

:101B5000E80406D5A1690720000481430120800420

:101B6000A2E0A80406D5A169072000058143012051

:101B7000800599E0680407D5A06907210906884314

:101B8000012189064018C1E6280400D4BFE6A169F6

:101B90000720000781430120800785E010E016E060

:101BA0008C4201D1132007E09C4201D1142003E0B4

:101BB0002248844202D1152000F05AF9E80704D0E7

:101BC0006069C008C000001D71E6A80703D5606900

:101BD000B04340306BE6680700D573E7280706D5A9

:101BE0006069072109038843012189031FE0E80692

:101BF00006D560690721090488430121890416E09C

:101C0000A80609D5616907200005814301208005E8

:101C100008184CE622E028E0680600D574E728069C

:101C20001AD56069072109078843012189074018EF

:101C30003DE60000004000500080005000C0005011

:101C40000020000000000200000020000010000042

:101C50000000010000001000E80504D5A069C008DC

:101C6000C000001D52E6A80503D5A069B04340306E

:101C70004CE6680500D55DE7280506D5A169072073

:101C800000038143012080030EE0E80400D561E7F2

:101C9000A80400D567E7680400D475E7A1690720A8

:101CA000000681430120800608182FE6F8B50A4691

:101CB000FFF794F804461046FFF79FF80546052005

:101CC0000007844201D112200DE06E48844201D108

:101CD000132008E06C48844201D1142003E06B48D3

:101CE000844202D1152000F0C3F8E80703D06069F0

:101CF000C008C0000AE0A9077020002901DA616964

:101D00001DE063496A0703D5606988436061F8BDD7

:101D1000604A2B0702D560699043F7E75E4BEE06F9

:101D200002D560699843F1E75C4EAF0602D5606961

:101D3000B043EBE76F0605D56169072000068143D4

:101D40006161F8BD2F0603D5616907200007F6E73A

:101D5000EF0503D5A069C008C00007E0AF0501D5B5

:101D6000A16919E0680503D5A0691DE0A061F8BD6F

:101D7000280502D5A0699043F8E7E80402D5A069D8

:101D80009843F3E7A80402D5A069B043EEE76804DE

:101D900005D5A169072000068143A161F8BD28048B

:101DA000FCD5A069072109078843DFE7042810D282

:101DB0000122120491420CD2394A00280AD001288B

:101DC0000DD0022810D0032803D1D0880843D18831

:101DD000D080704710880843118810807047508861

:101DE00008435188508070479088084391889080BC

:101DF000704704280CD210290AD201228A402849AF

:101E0000002807D0012807D0022807D0032807D0D0

:101E100000207047088804E0488802E0888800E0D5

:101E2000C8881040F5D001207047042810D210292E

:101E30000ED201228A401A4900280AD001280DD06A

:101E4000022810D0032803D1C8889043CA88C880CC

:101E50007047088890430A880880704748889043F4

:101E60004A8848807047888890438A88888070476D

:101E7000002805DBC106C90E012088400949086019

:101E800070470000004000500080005000C000502B

:101E90000007000000700000000007000000700054

:101EA0004400002000E100E01B480068004710B536

:101EB0000446406809F0BDFE03461749E068086023

:101EC00016480168FF221204914340221404214362

:101ED000016013480260032201211248FEF736FB1D

:101EE000002010BD10B5010012D00F48002911D0FC

:101EF0000724FEF710FB002C08DB01200849A04056

:101F000080310860BFF34F8FBFF36F8F002010BD8B

:101F10000448EBE70624ECE74C00002004E400E072

:101F200000E100E000C000400000014070B505463F

:101F30000C46082004F012F8F649AA008850F64929

:101F400068000B5AF54D2D5AAB4207D20B460833A9

:101F50009A580B5AD4540A5A521C0A5270BDF8B5FA

:101F60000E4603280BD2EC4D4400295B002906D015

:101F70008700E848C05904F00DF8012802D000207D

:101F8000C0B2F8BD2A5BE4480830C15930460DF0B4

:101F900037F8285B00212953F2E770B50023DE4DA6

:101FA00044002B53002807D0012807D0022802D173

:101FB000002004F0FBFF70BDD94800E0D948FEF7CF

:101FC0006BFB70BDF1B500980078FEF707FF054682

:101FD00000988078FEF702FF044600984078FEF7EC

:101FE0000CFF06460098C078FEF707FF02462868F7

:101FF000304328602168114321600098007A00284E

:102000000CD00F2100280BD00E2005270F233F07EF

:102010001B03BD4272D1F70771D10AE00D21F1E730

:102020000C20F2E721296BD00A296AD07AE3E96310

:10203000F0E3B70715D5062904D0212907D00A29CE

:102040000AD093E3E96BF026B143103196E3E96BD4

:10205000F026B143203191E3E96BF026B1433031F2

:102060008CE3770715D5012971D0212970D00A2971

:1020700002D008E0E963F4E3EE6B0F2109028E431E

:1020800003210902A8E3EE6B0F2109028E43EE63E0

:10209000E7E3370710D5102972D01429FCD00A299C

:1020A0006FD00F296ED01B296DD020296CD0E96B21

:1020B0009943A3E38919A1E3F70629D5122906D08C

:1020C000162904D0212909D00A2910D01AE0EE6B74

:1020D0000F2109048E430121090404E2EE6B0F2154

:1020E00009048E4301214904FDE1E963F0E3E96B52

:1020F0000F263604B14303263604FCE1EFE0F3E09B

:10210000D6E1F4E0EE6B0F2109048E43EE63DFE3CA

:10211000B70613D513296FD017296DD021296CD09C

:102120000A2904D0052969D095E371182AE1EE6BDC

:102130000F2109058E4303210905F6E777062AD505

:10214000052906D021290BD0092912D01DE04DE127

:102150004DE1E96B0F263606B14301263606A6E3AC

:10216000EE6B0F2109068E430121490697E3E963CF

:10217000E5E3EE6B0F2109068E43032109068EE38A

:1021800053E154E196E1E9E17EE1EE6B0F210906AE

:102190008E43EE63D3E337060CD505297AD0212987

:1021A00079D0092978D0E96B0901090900E089197A

:1021B000E963CDE3F70506D508296ED01F296DD058

:1021C000FCE12964CEE3B7050FD5082902D01F2909

:1021D00005D017E2296CF026B143103103E0296CD9

:1021E000F026B14330312964CDE377050FD50829B6

:1021F00073D01F2972D004E0B6E033E3C4E0296451

:10220000CAE32E6C0F2109028E432E64C4E3370506

:102210000AD5082970D01F296FD001E0891901E083

:10222000296C99432964C0E3F7040ED507297FD0B0

:102230002E6C1F293C4902D08E432E64BEE38E4390

:102240000321090471182964B8E3B70412D50729DA

:1022500002D01F2907D049E22E6C0F2109058E43B9

:10226000012109054EE22E6C0F2109058E43032141

:10227000090547E2770429D5072910D00B2915D085

:1022800013291CD017291AD02E6C0F2109068E4352

:102290002E64A5E309E109E1DDE193E197E12E6C0C

:1022A0000F2109068E430121090605E02E6C0F213E

:1022B00009068E43032109067118296490E32E6CE8

:1022C0000F2109068E4301218906F5E7310474D5F3

:1022D000296C0901090929648BE3B5E1A6E1134FD3

:1022E000BD4274D1F70709D0062968D09AE6E96B98

:1022F00009090901C91C9AE6C2E1C6E1B70700D580

:1023000099E6770715D5032970D021296FD00A29BE

:102310006ED0B8E6E803002050000020BEC20000E6

:10232000008000400000034000000F00004000500B

:10233000C7E1370706D5032977D0212976D00A29A6

:1023400075D0B4E6F70606D5042900D1BFE6092901

:1023500000D0D7E6CBE6B7061DD5042904D00A295C

:1023600009D0222910D076E2EE6B0F2109058E43A9

:1023700001210905D9E6E96B0F263605B14303268D

:1023800036058919E963D1E2EE6B0F2109058E4309

:1023900001218905C9E6770612D5042900D1D8E6BE

:1023A0000A2900D1E5E6232900D0EEE6EE6B0F21E5

:1023B00009068E430121890671E2DBE207E0B5E1FF

:1023C000370671D5012970D01D296FD0EBE6FA4F81

:1023D000BD426CD1F70704D01D2969D00E2968D001

:1023E000A0E1B7070CD51E2903D130E6D6E184E081

:1023F00024E00F2970D1E96BF026B1434031BDE1F3

:1024000077072AD5242913D0EC4E366B0427BE4318

:10241000EA4F3E63102970D014296ED020290DD0C8

:102420000C2913D01A2969D02DE6E9E195E036E0B0

:10243000E2490E6B04273E430E6324E6E96B0F2648

:102440003602B14303263602891913E6EE6B0F21DB

:1024500009028E4301218902BEE137072FD52429C5

:1024600017D0D64E366B0427BE43D44F3E63112996

:1024700073D0152971D0202911D00D291AD019290E

:102480006CD0182900D012E6E96B03269943760335

:1024900010E6CA490E6B04273E430E6307E6E96B5C

:1024A00003269943360305E65AE26DE011E22CE17A

:1024B00041E145E1E96B01269943B603FAE5F706E8

:1024C0002BD5122911D016290FD00B2917D001298D

:1024D0001CD0182901D015E648E1EE6B0F21090444

:1024E0008E43032149047118FFE5E96B0F2636047A

:1024F000B143012676048919F7E555E166E1EE6BF3

:102500000F2109048E4303210904ECE7EE6B0F2130

:1025100009048E4305210904E5E7B7060DD52529F1

:1025200005D0A64F396B0226B143396393E1A34925

:102530000E6B02273E430E638DE177060FD52529EA

:1025400005D09E4F396B0226B14339631DE69B4986

:102550000E6B02273E430E6317E656E15BE137063A

:1025600024D5132910D017290ED0092973D00B298F

:1025700010D0012914D0182900D014E6E96B0326E5

:1025800009010909760712E6E96B01260901090923

:1025900036070CE6E96B012609010909B60706E6CC

:1025A000E96B052609010909360700E6F70513D589

:1025B00026296FD0012905D0182908D0296C0909CE

:1025C0000901FEE5296C09090901491CF9E5296C95

:1025D00009090901C91CF4E5B70518D524290CD04F

:1025E000764E376B0826B743744E3763012900D106

:1025F000F0E5182900D1F2E504E0704F3E6B0821A8

:102600000E433E632E6CF0218E432E64BBE17705B2

:1026100022D5242912D0694E376B0826B743674E5E

:102620003763012910D0182900D0EAE5296C0F265C

:102630003602B143032636028919E0E55F4F396B54

:10264000082631433963DCE5296C0F263602B14395

:10265000FF310131D3E535E1370526D511290FD0FA

:1026600015290DD00A2910D00E2914D01C2917D0F5

:10267000202900D0D4E5296C032699437603CDE5C3

:10268000296C012699433603C8E5296C0326994332

:102690003603C3E566E1296C01269943B603BDE51F

:1026A000296C052699433603B8E5F7041AD50329A2

:1026B00007D021290BD00A29296C414E0DD0B143F6

:1026C000C1E52E6C3E498E4301210904BAE52E6C0A

:1026D0003B498E4301214904B4E5B1430326360446

:1026E0008919B0E5B70466D51D2905D02E6C0F21D8

:1026F00009058E432E646AE12E6C0F2109058E4375

:10270000012149057118296461E12E4FBD4272D142

:10271000F7071ED0012909D01D290CD00C290FD094

:10272000272912D0E96B0909090180E4E96B09093D

:102730000901491C7BE4E96B09090901891C76E45C

:10274000E96B09090901091D71E4E96B0F263143A1

:102750006DE4B70714D5012900D173E41E2900D117

:1027600075E40D2900D146E6272904D0EE6BF0214F

:102770008E43EE63BBE0E96BF0263143E963B6E0DC

:1027800077072DD5022909D01D290DD019291DD073

:102790002729E96B0C4E21D0B1436BE4E96B0A4E5B

:1027A000B143FF31013165E4E96B074EB143FF31BD

:1027B000FF3102315EE411E10080005080000150E1

:1027C00000000F0000C00050000F0000EE6B0F2152

:1027D00009028E430521090271184BE4314349E493

:1027E00037071DD502290BD01D290ED01A2912D06A

:1027F000272901D05BE472E0E96B1943E96384E0C7

:10280000E96B01269943360354E4E96B01269943A9

:1028100076034FE465E0E96B05269943360349E406

:10282000F7060FD51E2900D15FE6102900D15EE41E

:102830001429FCD0272900D064E4E96B0F26360464

:10284000314352E4B70614D51D290BD0112900D10C

:1028500091E51529FCD0EE6B0F2109058E43EE633F

:1028600064E04BE0EE6B0F2109058E430121490521

:102870005BE477061DD502290BD01D2900D16FE43A

:1028800012290ED016290CD0E96B0F263606B1435B

:102890006DE4EE6B0F2109068E43012109067118C4

:1028A00065E4E96B0F263606B1430326360689191F

:1028B0005DE4370654D51E290BD0132902D0172901

:1028C00000D070E4E96B03260901090936076EE4BC

:1028D00022E0E96B012609010909760767E4F1079F

:1028E00003D0A968890889001CE0B10704D5A9684C

:1028F0000C26B14308313CE0710704D5A9683026A5

:10290000B143203135E0310704D5A968C026B14371

:1029100080312EE0F10607D5A96803263602B143BF

:10292000FF31FF31891C24E0B10606D5A9680326D2

:10293000B602B1430126F60210E0710606D5AE6874

:10294000032109038E430121490311E0310607D514

:10295000A9680326B603B1430126F603891908E0E6

:10296000F1050ED5AE68032109048E430121490407

:102970007118A960052109078C426FD1D1076ED16A

:1029800044E0B10506D5A9680326B604B143012683

:10299000F604E3E7710506D5AE68032109058E4309

:1029A00001214905E4E7310506D5A9680326B605E6

:1029B000B1430126F605D1E7F10406D5AE6803213F

:1029C00009068E4301214906D2E7B10406D5A9685C

:1029D0000326B606B1430126F606BFE7710406D505

:1029E000A96803263607B14301267607B6E7310406

:1029F000C0D5A968012689008908F607AEE7212815

:102A000076D00A2875D05FE3E063F7E3910771D4CD

:102A100051072BD501286ED021286DD00A281FD14F

:102A200015E0E06BF0218843103074E3212802D0D8

:102A30000A2805D0C2E1E06BF021884320306AE328

:102A4000E06BF0218843303065E3E063EFE3E16B56

:102A50000F20000281430320000282E31AE11EE1FD

:102A6000E16B0F2000028143E163E0E3110710D521

:102A700010286FD014286DD00A286CD00F286BD086

:102A80001B286AD0202869D0E06B984379E340186E

:102A900077E3D1061FD5122806D0162804D02128A6

:102AA00009D00A2810D089E3E16B0F20000481438C

:102AB0000120000400E2E16B0F20000481430120AB

:102AC0004004F9E1E063ECE3E06B0F210904884383

:102AD000032109047DE3910611D5132872D017282C

:102AE00070D021286FD00A286ED005286DD026E13D

:102AF000BFE1D7E0DDE056E1EAE108187CE35106EA

:102B00001CD5052807D021280BD00928E06BF849EF

:102B10000FD088430BE0E16BF548814301200006AC

:102B200090E3E06BF24988430121490604E0E06349

:102B3000C3E38843032109064018F8E7110611D5BD

:102B4000052871D0212870D009286FD0E06B0001D2

:102B5000000905E028E129E18DE1E6E175E1401891

:102B6000E063B0E3D10506D5082874D01F2873D0E0

:102B7000FAE12064ADE391050FD5082802D01F28A3

:102B800005D014E2206CF0218843103003E0206C63

:102B9000F021884330302064A1E3510516D5082880

:102BA00070D01F2808D1216C0F2000028143032020

:102BB00000020818206498E3216C0F200002814372

:102BC000216492E3AFE01AE31BE1B2E011050AD5FC

:102BD000082871D01F2870D001E0401801E0206C57

:102BE0009843206487E3D1040DD5072875D01F28AA

:102BF00074D002E00818206483E3216C0F200004E5

:102C0000814321647DE3910416D5072806D0216C09

:102C10001F28B8480BD0814321647AE3216CB54862

:102C200081430120000505E020E120E1E6E1814348

:102C300003200005081831E2510424D507280CD0E0

:102C40000B2810D0132816D0172814D0216CA848B0

:102C50008143216463E38BE18FE1216CA4488143CC

:102C60000120000604E0216CA148814303200006F6

:102C70000818206453E3206C9D498843012189068C

:102C80004018F6E7AFE1100474D5206C000100098C

:102C900020644AE3984DAC427BD1D10707D0062887

:102CA0006AD0ACE6E06B00090001C01CACE69107FD

:102CB00005D5062802D0B9E6B5E1B9E1B1E651077C

:102CC00002D503286FD0A7E6110708D503286BD0DB

:102CD00021286AD00A2869D0D6E6C9E1C1E1D10627

:102CE00018D5042802D0092807D00DE0E06B0F2189

:102CF00009048843012109046BE2E16B0F20000401

:102D0000814303200004D7E0E16B0F2000048143DE

:102D1000E163C6E2910617D5042804D00A2870D0D2

:102D2000222806D00BE0E16B7248814301200005A8

:102D3000E3E6E16B6F48814301208005DDE6E16B4E

:102D40006C488143E163B2E251061BD5042800D1EF

:102D5000E1E60A2802D0232806D00EE0E16B6448A1

:102D60008143032000066DE2E16B6148814301204D

:102D7000800667E2CAE20CE0AAE1E16B5C488143AD

:102D8000E1639AE2110670D501286FD01D286ED03C

:102D9000DCE65A4DAC426BD1D50708D01D2868D06F

:102DA0000E2867D090E1CAE1EDE1ABE058E095076D

:102DB0000ED51E2800D13EE60F2804D0E16BF0208E

:102DC0008143E1635DE2E06BF02188434030A2E1A2

:102DD000550724D5242815D049490A6B04239A4362

:102DE0000A63102874D0142872D0202800D12EE64F

:102DF0000C280DD01A286CD0E06B0F2109028843F3

:102E000023E603E23E48016B04221143016327E6F7

:102E1000E16B0F200002814301208002A1E1150730

:102E20002ED5242816D036490A6B0425AA430A63F6

:102E3000112867D0152865D0202811D00D281AD068

:102E4000192872D0182800D01EE6E06B03219843A1

:102E500049031CE62A48016B04221143016313E66F

:102E6000E06B03219843090311E630E264E0FAE1E4

:102E70001DE132E136E1E06B01219843890306E66A

:102E8000D5061BD5122800D115E61628FCD00B2834

:102E900000D132E7012809D0182800D034E7E06BD0

:102EA0000F21090488430321490492E1E16B0F20BB

:102EB0000004814305200004081803E695060DD59B

:102EC00025280F48016B05D002229143016336E7A4

:102ED0003BE141E102221143016389E1550615D529

:102EE00025280748016B0ED002229143016344E775

:102EF0000000000F0000F000004000500080005073

:102F00008000015044E102221143EFE7150623D56A

:102F1000132811D017280FD009286FD00B2811D0F3

:102F2000012815D0182801D010E637E1E06B032105

:102F300000010009490712E6E06B012100010009C8

:102F400009070CE6E06B012100010009890706E68C

:102F5000E06B0001000902E6D10513D5262871D0E7

:102F6000012805D0182808D0206C0009000100E6CF

:102F7000206C00090001401CFBE5206C00090001E9

:102F8000C01CF6E5910517D524280BD0FE490B6B24

:102F9000082293430B63012800D1F3E5182800D1E0

:102FA000F5E504E0F848016B082211430163216C48

:102FB000F0208143216492E1510520D524280CD0D2

:102FC000F1490B6B082293430B6301280BD018289F

:102FD000206CEE490DD08843ECE5EB48016B0822EC

:102FE00011430163E8E5206CE8498843FF30013074

:102FF000E0E58843032109024018DBE52DE11105D6

:1030000026D511280FD015280DD00A2810D00E284B

:1030100013D01C2817D0202800D0E0E5206C032115

:1030200098434903D9E5206C012198430903D4E56D

:10303000206C032198430903CFE5206C01219843BC

:103040008903CAE545E1206C052198430903C4E5DD

:10305000D1041BD503280BD0212810D00A2800D07A

:10306000CBE5216C0F200004814303200004C1E55F

:10307000216C0F200004814301200004BAE5216C7B

:103080000F200004814301204004B3E5910475D56D

:103090001D2805D0206C0F2109058843206438E1E4

:1030A000216C0F200005814301204005C2E5B8498D

:1030B0008C4272D1D1071ED0012809D01D280CD016

:1030C0000C280FD0272812D0E06B000900019BE4E8

:1030D000E06B00090001401C96E4E06B0009000170

:1030E000801C91E4E06B00090001001D8CE4E06BA2

:1030F0000F21084388E4910712D5012800D190E4FC

:103100001E2800D197E40D2800D15CE62728E06B4B

:1031100003D0F0218843E063B3E0F0210843FAE7ED

:10312000510720D502280AD01D280ED0192813D007

:10313000272800D094E4E06B9449084385E4E06BD1

:1031400092498843FF3001307FE4E06B8F49884328

:10315000FF30FF30023078E4E16B8C48814305207A

:103160000002081871E411071DD502280BD01D2894

:103170000ED01A2812D0272801D085E4CDE0E06BCC

:103180001843E06388E0E06B0121984309037EE483

:10319000E06B01219843490379E46AE0E06B052183

:1031A0009843090373E4D1061AD51E280BD01028C2

:1031B00000D1A2E51428FCD027280CD0E06B0F2109

:1031C000090488437EE4E06B0F2109048843012150

:1031D0004904401876E4E06B0F210904084371E4C8

:1031E00091061AD51D280AD011280FD015280DD008

:1031F000E06B0F2109058843E06358E03BE0E16B99

:103200000F20000581430120400576E4E16B0F208B

:1032100000058143032000056FE4510614D5022800

:1032200000D178E41D2807D0122801D196E52DE0C1

:10323000162800D0A1E591E5E16B0F20000681433F

:1032400001204006081872E4110640D51E280AD055

:10325000132802D0172800D078E4E06B0321000186

:10326000000909077BE4E06B01210001000949071F

:1032700075E4D00703D0A0688008800058E090076C

:1032800002D5A0680C2103E0500703D5A0683021C7

:1032900088434DE0100702D5A068C021F8E7D006AA

:1032A00003D5A168032000022EE0900603D5A06894

:1032B00003218902ECE7500603D5A168032000032F

:1032C00022E0100603D5A06803218903E0E7D005BA

:1032D00003D5A1680320000416E0900503D5A0687B

:1032E00003218904D4E7500503D5A1680320000514

:1032F0000AE0100503D5A06803218905C8E7D004BA

:1033000005D5A168032000068143A16011E0900467

:1033100003D5A06803218906BAE7500403D5A06845

:1033200003210907B4E7100403D5A06880008008D2

:10333000A0600098007A002830D0164D00282FD0C9

:1033400011240098093008F061FC06460098001D21

:1033500008F05CFC014632462846FDF785F901215C

:103360002846FDF77FF90022FF23002C1ADBA10875

:103370000948890008180568A107C90E8B409D43BC

:103380008A40154305601CE080000150000F0000DA

:1033900000C000500000034000E400E0474DCDE7CE

:1033A0000B24CEE72007000F083881084448890025

:1033B0000818C569A107C90E8B409D438A40154373

:1033C000C561002C03DB01203E49A0400860F8BD28

:1033D00070B5050015D02C7A002C13D0012C11D01B

:1033E000022C0ED12846093008F010FC0646281D94

:1033F00008F00CFC314603F065FD0020324A610004

:10340000505270BDFEF7DEFDF7E710B5002809D079

:10341000012806D101212D48FDF7ECF8112000F01C

:1034200019F810BD01212548FDF7E4F80B20F6E757

:1034300010B500280AD00179002908D0012906D04A

:10344000022903D18179407903F073FD10BD00F0AA

:103450000FF810BD00280ADBC106C90E0120884004

:10346000184980310860BFF34F8FBFF36F8F7047EB

:1034700010B504468079002801D0012200E0002226

:1034800061782078FEF7BCF96279617820780023B2

:10349000FEF7B2F9A079002801D0012200E0002255

:1034A000E178A078FEF7ACF96279E178A0780023A2

:1034B000FEF7A2F92079FFF7A8FF10BD00800040B9

:1034C00000ED00E000E100E05000002000000340BB

:1034D00010B50F4C20780A2801D2FDF709F92078A1

:1034E000401C20706068002800D0804710BD08494B

:1034F00000200870704710B5044601222D210D20D0

:10350000FDF7FAF8024900220A704C6010BD000075

:103510006400002000487047C4C2000000487047A3

:10352000D8C2000000487047F4C2000010B500F097

:1035300091FA014810BD000024C3000010B500F04E

:10354000D7FC014810BD000044C3000010B505F0D1

:1035500034F8014810BD000060C300000048704707

:1035600074C3000010B505F0C9FE014810BD00008D

:103570007CC3000010B502F047FD014810BD0000FB

:1035800098C3000010B502F0ADFC014810BD00006A

:10359000A0C3000010B505F09BFA014810BD000063

:1035A000BCC300000EB500F045F80C480A490160A4

:1035B00000214160032069460870084800F010F8B7

:1035C0000EBD0EB5684600F054F8012803D16946D7

:1035D000024800F00EF80EBDAD3700006C00002070

:1035E00010B502680446904722680D49204690476E

:1035F00010BD70B505680446A847022807D000280A

:1036000004D10749226812312046904770BD044911

:1036100020460931A847024920462268F5E7000004

:10362000D9C300000EB56A4610705170684600F0AC

:1036300007F80EBD10B530211B4808F0DCFA10BDAC

:1036400010B5194C0146A078052811D26078C20047

:10365000801800190922C01C0BF0D2FC60780521EB

:10366000401CC0B208F0AAFA6170A078401CA0709B

:1036700010BD10B50C4CA178002913D02178CA00D8

:10368000891809190922C91C0BF0BAFC20780521F8

:10369000401CC0B208F092FA2170A078401EA070C1

:1036A000012010BD002010BDF4030020F8B507462E

:1036B0001748012500680C46052809D3FDF751FB82

:1036C000014660780090237812A214A008F054FB01

:1036D0002078204E030008F07BFB0B180718181504

:1036E00018181818180E1800032007F08CFA01207B

:1036F00006F089FF02E06078042806D1304608F021

:10370000B3F902E01448022538602846F8BD0000ED

:103710003C00002069646C65000000001B5B313BCD

:1037200033376D5B25735D20286C6F636B5F667349

:103730006D292046736D5F73746174655B25735DDD

:103740002C204576656E745B25752C2025755D0DE6

:103750000A0000001027000031380000F8B50646C6

:103760001D48012500680C46052809D3FDF7F9FA24

:10377000014660780090237818A21BA008F0FCFA9C

:103780002078030008F024FB05100410100D100031

:103790001920400108F06FF9FF20F53008F064F9B6

:1037A00002E01F48022530602846F8BD38B50546BE

:1037B00009480C460068052809D3FDF7D2FA0146EE

:1037C00060780090237817A207A008F0D5FA174870

:1037D0002860022038BD00003C000020706F776533

:1037E000725F6F6E000000001B5B313B33376D5B17

:1037F00025735D20286C6F636B5F66736D292046AF

:10380000736D5F73746174655B25735D2C20457601

:10381000656E745B25752C2025755D0D0A00000012

:10382000AD360000696E6974000000005D3700006D

:10383000F8B506461A48012500680C46052809D344

:10384000FDF78FFA014660780090237815A217A043

:1038500008F092FA2078030008F0BAFA0B1F071F4D

:103860001F151F1F1F1F1F0E1F00012007F0CBF980

:10387000012006F0C8FE0AE0607802280DD1194840

:103880000225306009E007F0E7FB002803D0FA20AA

:1038900008F0EAF801E007F0D8FF2846F8BD00007C

:1038A0003C000020736C6565700000001B5B313BC1

:1038B00033376D5B25735D20286C6F636B5F6673B8

:1038C0006D292046736D5F73746174655B25735D4C

:1038D0002C204576656E745B25752C2025755D0D55

:1038E0000A000000AD36000010B580788B49000951

:1038F0000AD0002201280BD0052804D14A700021EB

:10390000012000F0E4F810BD012048700321F7E722

:103910004A800421F4E770B58178804E0A090125B8

:1039200000247F4BB189002A11D0012A19D0062A20

:103930000CD164290AD2491C88B2B081642805D30D

:1039400074721D700E21002000F0C1F870BD1C7053

:10395000642903D20179002000F0B9F8B4817572AE

:1039600070BD7472B48119780029F9D01C70017986

:103970000220E9E770B502462520684D00012818AD

:10398000002912D0002A04D0012A01D1FDF75FF8E6

:1039900070BD00242C20604340191430FDF757F807

:1039A000641CE4B20D2CF5D370BD0026002A05D0AE

:1039B000012AF9D1FDF760F86E7070BD00242C204B

:1039C000604340191430FDF757F8641CE4B20D2C25

:1039D000F5D36E7270BD70B5002501264F4C0028DE

:1039E00024D0012801D0002070BD6580657020784A

:1039F00000282DD1267002F059FE4B480D230022DD

:103A000048490446FCF716FF484A00212046FCF7C7

:103A100034FF464A01212046FCF72FFF434A052187

:103A20002046FCF72AFF012108460FE03C480830F9

:103A300002F0DEFB6572A581FF20A072207A0028CB

:103A400006D1267200F049F801210020FFF792FF0D

:103A5000012070BD32494860704710B5012806D07A

:103A6000002803D12D48407A002801D0002010BD45

:103A700002F0B2FB012010BD2849012803D0002824

:103A800003D00020704748787047487A70477047E5

:103A900010B502F0B4FB002801D0012010BD02F0E7

:103AA00032FE0028FAD0082010BD10B51E4C30346C

:103AB000A06A02F06FFA002807D00A2002F04EFA3E

:103AC000A06202F08DFBFCF7E8FF10BD7047144ABE

:103AD0005268002A00D01047704770B50F4E00247E

:103AE0002C206043851914352346012210492846AD

:103AF000FCF7A0FE28460F4A0021FCF7BEFE284630

:103B00000C4A0121FCF7B9FE28460A4A0621FCF7B7

:103B1000B4FE641CE4B20D2CE2D370BD240400207A

:103B200074000020ED66000074060020E9380000F3

:103B3000C96100001739000010B5040009D02168E0

:103B4000012088476168012088470A21204600F04B

:103B50008BF910BD10B504001DD0616801208847A5

:103B6000216801208847617C204600F07DF9A0682B

:103B70008047002811D0616800208847617C20467A

:103B800000F072F9216800208847617C204600F02F

:103B90006BF9002010BD042010BD032010BD10B52E

:103BA000040017D0216800208847616800208847FA

:103BB000617C204600F058F9216801208847617C2B

:103BC000204600F051F9616801208847617C204659

:103BD00000F04AF910BD70B50E4604003FD0002534

:103BE0006168F00988477006060E617C204600F087

:103BF0003BF9216801208847617C204600F034F9B8

:103C00002168002088476D1CEDB2082DE8D361685B

:103C1000E57C01208847617C204600F025F9216879

:103C200001208847617C204600F01EF9A06880478B

:103C3000060004D028466D1EADB20028F6D12168DA

:103C400000208847617C204600F00EF96168012061

:103C50008847A17C204600F007F9304670BD04205B

:103C600070BDF7B5040042D0019800283FD0002570

:103C7000616801208847617C204600F0F5F8002744

:103C800001266806050E216801208847617C2046D0

:103C900000F0EAF8A0688047002800D03543617C36

:103CA000204600F0E1F8216800208847617C20462A

:103CB00000F0DAF87F1CFFB2082FE2D302986168A7

:103CC00070408847617C204600F0CEF821680120D2

:103CD0008847617C204600F0C7F8216800208847AB

:103CE000616801208847019805700020FEBD04200E

:103CF000FEBDFFB581B007000BD00398002808D0A7

:103D00000498002805D0387D010705D00607360F36

:103D100003E0042005B0F0BD00263846FFF71AFF87

:103D200004001BD1387C4006010E3846FFF753FFD4

:103D3000040013D138460299FFF74DFF04000DD15E

:103D4000002508E00398415D3846FFF744FF040072

:103D500004D16D1CADB204988542F3D33846FFF709

:103D60001EFF002C07D06420FCF75AFF3046761E59

:103D7000F6B20028D1D12046CCE7FFB581B001983A

:103D80001F4600280BD00398002808D0002F06D02B

:103D90000198007D010704D00607360F02E00420D9

:103DA000B8E700260198FFF7D5FE040032D101984C

:103DB000007C4006010E0198FFF70DFF040029D199

:103DC00002990198FFF707FF040023D10198FFF73C

:103DD000C1FE04001ED10198007C4000401CC1B20D

:103DE0000198FFF7F8FE040014D10025781E00901A

:103DF0000EE00098854201D0012200E000220398E5

:103E000041190198FFF72DFF040003D16D1CADB2DD

:103E1000BD42EED30198FFF7C2FE002C07D064200C

:103E2000FCF7FEFE3046761EF6B20028BAD12046D8

:103E300070E770B5050005D00024FFF78BFE002861

:103E400002D00CE0012070BD287C4006010E2846FF

:103E5000FFF7C1FE002801D0012400E0002428461D

:103E6000FFF79DFE204670BD002804D0C268002ADE

:103E700001D088B210477047034610B500200246B3

:103E800004E09C5C2018521C80B292B28A42F8D3A3

:103E900010BD30B5002307E0C45CCD5CAC4201D05E

:103EA000002030BD5B1C9BB29342F5D3012030BD96

:103EB00030B503460C480D4C0FE01A781202504002

:103EC00000225B1C050402D54000604000E0400079

:103ED000521CD2B280B2082AF4D30A46491E89B2D3

:103EE000002AEAD130BD0000FFFF000021100000D1

:103EF000F84948607047F74908807047F5480088DE

:103F0000704710B501220B210020FDF779FC00233A

:103F100002220B211846FDF76FFC00220721012029

:103F2000FDF76EFC0023022207210120FDF764FC4F

:103F300000220E211046FDF763FC002302220E2111

:103F40001846FDF759FC002201211046FDF758FCE8

:103F50000023022201211846FDF74EFC00220D210C

:103F60001046FDF74DFC002302220D211846FDF7F7

:103F700043FCD949002048608860C86008614861F6

:103F80008861C861086248628862C86208634863E1

:103F900010BD10B5002207210120FDF731FC0122E0

:103FA0000B210020FDF72CFC002201211046FDF71B

:103FB00027FC00220E211046FDF722FC01220D21D4

:103FC0000020FDF71DFCC449002048608860C860DF

:103FD000086148618861C861086248628862C86295

:103FE0000863486310BD03200146401EC0B200298B

:103FF000FAD1704770B5054600220B211046FDF737

:10400000FFFB0024002201211046FDF7F9FB2804E4

:1040100001D5012200E000220E210020FDF7F0FB77

:104020006804050CFFF7DFFF012211460020FDF7B1

:10403000E7FB641CA4B2102CE4D301220721104634

:10404000FDF7DEFBFFF7CFFF002207210120FDF780

:10405000D7FBFFF7C8FF00220B211046FDF7D0FB6E

:10406000FFF7C1FF002201211046FDF7C9FB002226

:104070000E211046FDF7C4FB70BD01460020CA07A3

:1040800000D002208A0702D50122120310434A07FA

:1040900002D50122520310430A0702D501229203DE

:1040A0001043CA0602D50122D20210438A0601D566

:1040B000202210434A0601D5102210430A0602D5D9

:1040C000012292021043CA0501D5082210438A0535

:1040D00001D5042210434A0502D5012252021043A1

:1040E0000A0501D5012210437047F8B57A4C7B4F81

:1040F00020342078774E784D002816D0686A01F079

:1041000049FF002811D0642001F028FF6862607820

:104110004000385AFFF7B1FF3080FFF76BFF60783F

:104120000A21401C07F04AFD6170207A002819D04E

:10413000E86A01F02FFF002814D0642001F00EFF80

:10414000E862607A0921081A0006C00D385AFFF7A4

:1041500094FF3080FFF74EFF607A0A21401C07F081

:104160002DFD6172F8BD102804D300290DD0002068

:1041700008800AE0594A40002C3A105A002900D021

:10418000088054490988014201D10020704701206C

:104190007047F8B50446002768460780102C3FD2C8

:1041A0004E4960002C39085A694608802046FFF7BE

:1041B000DAFF002834D0484D464E287A002812D025

:1041C0006A4631881288A888114388420BD1FFF7CC

:1041D00011FFAB7902220421012000F0C8F86F60C2

:1041E000AF60EF602F616946308809880843A88076

:1041F000EC8001202872C82001F0B0FE2861287AE6

:10420000002801D0C820E8606946308809888843C2

:10421000FFF7F0FE0122AB790421104600F0A7F869

:10422000F8BDF8B52C4D0E462C460027203403006F

:1042300007F0CEFD0936060F203337586A7C36006A

:10424000244C27482080FFF7D5FE00222378012147

:104250007FE0204E38463780FFF7CCFE6F60AF60BE

:10426000EF602F612F752770277227740022337833

:1042700002216EE06F60AF60EF602F612F752770D5

:10428000277227740846FFF7F8FE124C2080FFF7CC

:10429000B1FE0022237803215BE0C8B2FFF779FF6B

:1042A000F8BD6F60AF60EF602F612770277209481B

:1042B000277407803846FFF79DFE012028756F752B

:1042C000EE821E20288301F049FE00231A460521B4

:1042D000E8613EE08C000020D006002020C40000F1

:1042E000FFFF00006F60AF60EF602F612F752772D6

:1042F0002774012020706770642001F02FFE0023D6

:104300001A460621686224E06F60AF60EF602F619B

:104310002F7527702774012020726072642001F0CD

:104320001DFE00231A460721E86212E06F60AF60AD

:10433000EF602F612F75277027720120207467743A

:10434000FF2069862D3001F009FE00231A4608215E

:104350006863012000F00BF8F8BD10B500F075F8A7

:1043600000F00FF8FFF7C1FE00F039F810BD30B4CF

:10437000464C6468002C02D0A44630BC604730BC78

:10438000704770B5424C207D002827D0E06901F0CD

:1043900001FE002822D0208B01F0E0FDE061607D6D

:1043A0003C494000394D085A298808432880FFF7C6

:1043B00021FE607D401CC0B2607506280ED300202F

:1043C00020756075E08AFFF758FE2880FFF712FE1F

:1043D00000231A4605210120FFF7C9FF70BDF8B57B

:1043E0002B4C2034207C002824D0294F786B01F0FE

:1043F000D1FD00281ED0FF202D3001F0AFFD234D50

:1044000078632888002816D0002630462E80FFF7D3

:10441000F1FD607C03280DD326746674788EFFF757

:104420002CFE2880FFF7E6FD00231A460821012014

:10443000FFF79DFFF8BD1848FFF71FFE2880FFF724

:10444000D9FD607C401C6074F8BD10B5104CE0686C

:1044500000281AD0206901F09DFD002815D0E068E1

:1044600001F07CFD2061207A00280BD0401E000660

:10447000000E207206D1E060A379022204210120FF

:10448000FFF775FFA088FFF7B5FD10BD8C00002079

:10449000D006002014C40000AA020000934800784F

:1044A000704710B5FF2401342146914807F0A3FB63

:1044B0008F4922460819FCF7FDFA21468D4807F07E

:1044C0009AFB8C4922460819FCF7F4FA21468A48DF

:1044D00007F091FB884922460819FCF7EBFA83495B

:1044E0000020087010BDF8B5844F054638681646A0

:1044F0000C0010D0002E0ED0002D17D0012D18D09A

:10450000022806D3FCF72DFC01462A467CA007F0C2

:1045100033FC0020F8BD0228FBD3FCF722FC014647

:1045200033462246854807F027FCF2E771481038E9

:1045300001E071481038FCF7DBFA0446B0420DD2B6

:10454000386803280AD3FCF70CFC01460094002DC0

:1045500006D07BA233467C4807F00EFC2046F8BD0F

:104560007AA2F7E710B504000ED0012C0FD06348F3

:104570000068022806D3FCF7F4FB0146224675A02A

:1045800007F0FAFB002010BD5A48103801E05A48E5

:104590001038FCF797FA10BDF8B5584E044630684D

:1045A00015460F0010D0002D0ED0002C17D0012C76

:1045B00018D0022806D3FCF7D4FB0146224675A08A

:1045C00007F0DAFB0020F8BD0228FBD3FCF7C9FB9B

:1045D00001462B463A467F4807F0CEFBF2E74548B6

:1045E000103801E044481038FCF7BBFA05000BD145

:1045F0003068032808D3FCF7B4FB0146002C05D033

:104600004FA275A007F0B8FB2846F8BD4FA2F8E707

:10461000F8B50C46002810D0002C0ED0334E31785F

:10462000364F00290BD03868032806D3FCF799FBD6

:104630000146224677A007F09FFB0020F8BD01212C

:104640003170014622468148FCF752FA05460020A7

:104650003070A5420AD23868032807D3FCF781FBE3

:1046600001462B4622467A4807F086FB2846F8BDCD

:1046700010B57648FCF726FA10BDF8B51F4F0500B7

:1046800038680C460FD0002C0DD0184E3178002918

:1046900014D0032805D3FCF764FB01466DA007F096

:1046A0006BFB0020F8BD0228FBD3FCF75AFB014648

:1046B00023462A46744807F05FFBF2E7012030707A

:1046C000224629466148FCF74CFA04460020307027

:1046D000002C08D13868032805D3FCF742FB0146BB

:1046E0006AA007F049FB2046F8BD000094000020B6

:1046F0000807002018080020280900203C0000209E

:104700001B5B313B33316D5B25735D202875617216

:10471000745F717565756529207075742065727296

:104720006F723A20696E76616C6964207072696F8D

:10473000726974792025640D0A00000044C90000E4

:104740006E6F726D616C000060C800006869676818

:10475000000000001B5B313B33316D5B25735D2036

:1047600028756172745F7175657565292067657458

:10477000206C656E206572726F723A20696E766188

:104780006C6964207072696F726974792025640D98

:104790000A0000001B5B313B33316D5B25735D20EC

:1047A00028756172745F7175657565292067657418

:1047B0005F62756C6B206572726F723A20696E76FB

:1047C000616C6964207072696F7269747920256404

:1047D0000D0A0000A8C800001B5B313B33336D5B42

:1047E00025735D2028756172745F71756575652923

:1047F000206765745F62756C6B207761726E3A201A

:10480000257320717565756520656D7074790D0A65

:10481000000000001B5B313B33336D5B25735D2073

:1048200028756172745F71756575652920727820CD

:10483000627573792C20736B6970207075743A20DF

:104840006C656E3D25640D0A00000000280A0020FA

:1048500018C800001B5B313B33336D5B25735D2053

:1048600028756172745F717565756529207278208D

:10487000627573792C20736B6970206765745F6251

:10488000756C6B0D0A000000F4C800001B5B313B27

:1048900033336D5B25735D2028756172745F7175AC

:1048A00065756529207278206765745F62756C6B29

:1048B000207761726E3A20717565756520656D703F

:1048C00074790D0A00000000F8B5F74B994204D145

:1048D0000D21443007F08FF910E000230CE0CD18D3

:1048E000EC08241840346F0726797F0F0125BD405E

:1048F000AE435B1C2671DBB29342F0D30120F8BDBE

:104900004278D20707D04222125C012A03D06030DD

:104910008279930701D50020704701231A43C123F0

:1049200009071A40890E0A43827101207047F0B5C9

:1049300089B005466C46EF200F462070012161705A

:10494000FF20A070E07020711E466071A171F01C04

:10495000010AE1712072677213460A34002B07D0F6

:10496000002E05D03246194620460AF049FBA4190C

:104970006E463046211A891F89B2B01DFFF77CFAB6

:10498000010A21706070A86EA41C816800290ED0F5

:10499000EF70A11B8268C9B2684690474020405B17

:1049A00001F0DCFAE863687808210843687009B010

:1049B000F0BDF8B5017804460807000F15D025466C

:1049C00000220123403501281FD002280CD1607835

:1049D000860602D42679002E51D0009201236A4621

:1049E0001F212046FFF7A3FFF8BD6078810601D4A0

:1049F000C006F9D500231A460F212046FFF797FF7E

:104A0000207800090001401C11E06078800602D483

:104A10002079002818D0A07805280AD2401CA07060

:104A2000288801F09BFAE0632078000900012070DB

:104A3000F8BD00231A4633212046FFF778FF20787F

:104A4000000900010E30F2E7A07A322802D0E07AA5

:104A5000322801D13220E870207A9B2802D0607A77

:104A60009B2800D1AB70009201236A461F2120468B

:104A7000FFF75DFF207800090001801CD7E70909D6

:104A8000090121701843607020460D22611D4430D9

:104A90000AF0B6FA22460F2342320421204600F0E3

:104AA00073FC687C4006810F2046FFF729FFF8BDA4

:104AB0001CB5027804461107090F40300B0007F0BF

:104AC00087F9050412455E7D5D006078800655D546

:104AD00000231A4601212046FFF729FF207800090C

:104AE0000001401C82E061788B0602D42379002B00

:104AF0001BD0BF2319406170417CCB060AD500232F

:104B00001A4633212046FFF712FF207800090001E2

:104B10000E306BE0C90903D0100900010D3065E0CB

:104B2000008801F01BFAE0635DE0480626D44020CF

:104B3000014361702078012300090001801C20706E

:104B40005AA000686A460221009014E0607880064E

:104B500002D42079002802D01009000146E0207814

:104B6000052300090001C01C207051A003C8019159

:104B70006A46009004212046FFF7D9FE1CBD21792A

:104B8000002902D0092915D02DE0617889062AD4A0

:104B90006179A279090289184184002000900123DB

:104BA0006A4634212046FFF7C2FE20780009000142

:104BB000001D1BE000231A46012111E02079002886

:104BC00016D16078800613D421460E225331601D21

:104BD000FFF75FF900280BD0224602236232002142

:104BE000204600F0D1FB20780009000120701CBD98

:104BF00000231A460221F3E77CB502780446110728

:104C0000090F40300B0007F0E3F805041245678CEC

:104C10006600607880065ED500231A460121204692

:104C2000FFF785FE207800090001401C92E06178C2

:104C30008B0602D42379002B1BD0BF23194061704F

:104C4000417CCB060AD500231A4633212046FFF7C4

:104C50006EFE2078000900010E307BE0C90903D008

:104C6000100900010D3075E0008801F077F9E0636C

:104C70006DE048062FD44020014361702078012365

:104C800000090001801C207008A000686A4602210B

:104C900000901DE06078800602D4207900280BD0B7

:104CA0001009000156E00000FFFF000001000000B5

:104CB0000100000000000000207805230009000129

:104CC000C01C2070FB486A4603C801910090042173

:104CD0002046FFF72CFE7CBD2179002902D009294E

:104CE0001BD034E06178890631D46179A2790B0256

:104CF0009B184384012383846D4629706A700020C9

:104D0000A870EB7004236A460C212046FFF70FFEC3

:104D1000207800090001001D1CE000231A46012133

:104D200012E0217900290CD16178890609D4418CDF

:104D300001222046FFF7C8FD2246042362320021EB

:104D400002E000231A460921204600F01DFB2078CE

:104D50000009000120707CBDFEB5044600782246A3

:104D60000107090F6432254601264035171F0B0045

:104D700007F02EF8070516508396ADF92C00207920

:104D8000002802D06078800620D500231A46012131

:104D90002046FFF7CCFD207800090001401C6AE0A6

:104DA0002179002913D161788B0610D44B0601D5E7

:104DB000322028E040231943000961700001801C63

:104DC0002070012302212046FFF7B1FDFEBD61786E

:104DD000BF2211406170697CCA0602D53A79002A67

:104DE00005D0C9090ED0000900010D3043E00023B1

:104DF0001A4633212046FFF79AFD2078000900016A

:104E00000E3038E0288801F0A9F8E0632078000926

:104E1000000130E02079002877D16078800674D4D2

:104E200038790123401C38710A21204600F0ACFA81

:104E3000697C38794A07520F90420AD300231A46F8

:104E400005212046FFF773FD207800090001001DB1

:104E500011E00907ACD50128AAD19648052303C85B

:104E6000019100906A4604212046FFF760FD2078FA

:104E700000090001C01C2070FEBD00090001207067

:104E800020790028F8D160788006F5D4A17960797E

:104E9000090240186946088002236A4603215AE045

:104EA000207900280FD1607880060CD40020009073

:104EB00001236A4634212046FFF739FD2078000996

:104EC0000001401DD7E700231A46052143E0207961

:104ED00000283DD1607880063AD420460E22611D1C

:104EE00053300AF08DF80E23621D0B21204600F08E

:104EF0004BFA002100206218403212793346834079

:104F00001A4203D1C900081809E027E0401CC0B2CA

:104F10000828F3D3491CC9B20D29EBD3664868842D

:104F2000E978884203D300231A46082113E0694632

:104F30000E70000A4870688C887003236A46062148

:104F40002046FFF7F4FC207800090001801D92E75D

:104F500000231A460721204600F016FA204600F0EA

:104F600004FAFEBDFFE72079002811D160788006A1

:104F70000ED4688C0223C1080919403140070A7910

:104F8000400F864032430A71224662320021E2E736

:104F900000231A460621DEE710B504460078000714

:104FA000000F16D0012840D0022829D003280FD1A5

:104FB000A06E4168002901D00020884700231A46CE

:104FC0001946204600F0E0F920780F2108432070B0

:104FD00010BD2079BF21002802D0607808406070A1

:104FE0006078420617D408406070C00908D00421D8

:104FF0002046FFF785FC207800090001801CE6E7C9

:1050000000231A4633212046FFF791FC207800093F

:105010000001C01CDBE74020005B00F09FFFE06365

:10502000207800090001401CD1E700231A46012125

:105030002046FFF77CFC207800090001C7E7F8B59F

:105040000446017860230807000F00220426802709

:10505000E518002818D0012838D0022813D1A879E3

:105060008006000F042860784DD03843607000201F

:1050700000F074FFE063A879FD210840A871207852

:10508000000900012070F8BDA8798006000F0428EF

:1050900014D069460B70801D48708F70CA7004234D

:1050A0006A4640212046FFF742FC207800090001B3

:1050B000401CE7E7B04C0000FFFF000068460370AB

:1050C00046708270C27004236A4613E0207900287B

:1050D00002D008090001D5E769460B704E70A87927

:1050E0008006000F41000120884069468870CA7020

:1050F00004236A4640212046FFF719FC2078000966

:105100000001801CBEE74006400EAFE770B50E46BA

:10511000040025D0207831010007000F08432070DB

:10512000204600F022F960782546800740350028A7

:1051300011DB012E1AD0A06E4168002910D0012089

:1051400088476078FB2108406070687C4006810FCA

:105150002046FFF7D5FB6078400703D4288802E09B

:10516000002070BD002000F0F9FEE063012070BD5A

:1051700070B50278D449044610070B78000F9842A6

:1051800000D00870214660318B79DD0709D0150702

:1051900007D16578ED0704D002252B435B085B003F

:1051A0008B719907EF25DF26002903DA2046FFF7E8

:1051B00046FF48E00D281AD00E280ED00F2816D032

:1051C0006078C00720462AD011090B0006F000FEC7

:1051D000073B392A2D3033363B00A06E4168002949

:1051E00001D00020884720780F21084310E0A06EEE

:1051F0000069002827D08047002824D020780109A2

:10520000042907D02046FFF781FF2078000900011C

:10521000207018E0002000F0A1FEE063F5E7FFF742

:10522000C8FB10E000F0BFF80DE0FFF741FC0AE01A

:10523000FFF792FD07E000F0F8F804E0FFF7DCFC70

:1052400001E0FFF7A9FE607828403040607070BD33

:1052500070B505001FD0A86E0068002800D08047F8

:105260002C4664204034E0700020A070607CEF2168

:105270000840802108439F2108404030C008C000FA

:10528000F721801D08406074FF20F5302080002148

:105290002846FFF73BFF70BD70B590B0040062D0A8

:1052A000E06B00F077FE002803D0607820210843EF

:1052B00036E0A06EC068002833D0A06EC168684692

:1052C000884700282DD0617810254A07002A01DB85

:1052D0002943617069460C2823D30878EF2820D130

:1052E000487801281DD18879072801D007208871C6

:1052F0004A7A2271087ACA790002104340BA032818

:105300000CD9C01EC6B2A06E007DB04206D932468E

:10531000601D0A3109F074FE392006556078284373

:1053200060706078C10609D4810607D42178CA4329

:10533000120703D00907090F0D2914D1F7210840DE

:105340006070FF20F53000F009FEE06360784107EF

:1053500006D4042108436070002000F0FFFDE063E4

:105360002046FFF705FF10B070BD014662310022F4

:105370000A804A804178CF23194041700178090999

:105380000901017082707047F0B4C46E15460E4674

:10539000002C05D029463046A446F0BC1A4660478A

:1053A000F0BC0020704770B5044600780007000F7D

:1053B00023D0012820D125464035288800F0CEFD95

:1053C000E06320780109090121706078820602D427

:1053D0002279002A25D0BF2210406070687CC20666

:1053E00019D500231A4633212046FFF7A0FA20786A

:1053F000000900010E30207070BD60788006FBD57A

:1054000000231A4601212046FFF791FA207800096F

:105410000001401CEFE7C009EED0080900010D3083

:10542000E9E740210843607070BD38B50446007854

:10543000264A01072046090F4030002905D00129DE

:1054400040D1217900291BD032E0418C914203D117

:1054500000231A460D210BE00A0A6B461A70597098

:10546000818C6A46090A9970808CD87004230C21BB

:105470002046FFF75CFA207800090001401C20E07C

:105480006178890614D4418C808C914207D1C2B2D4

:105490002046FFF719FA00231A460C210BE0C2B28E

:1054A0002046FFF711FA224604236232002102E06F

:1054B00000231A4609212046FFF766FF20780009DD

:1054C0000001207038BD000095000020FFFF0000A3

:1054D00070B5402900D940210023FB4D08E01E078C

:1054E000360FC45CAE5D7440E443D4545B1CDBB245

:1054F0008B42F4D3012070BDFFB5A1B06C46EF2103

:105500002170AA2161701E462299A170310AE170B2

:105510002671641D13460546002A07D0002E05D0CB

:1055200032461946204609F06BFDA4196846211A37

:10553000891EC9B2801C00F0FFFB20706878641CD3

:10554000C00622D5402110A806F055FB0836F1B25E

:105550002091491F6846CFB210AE01783170417872

:1055600071700021B170F77011AA3946801CFFF7E5

:10557000AFFF3946301D00F0DFFBF119087110A9AB

:105580006846A41C209A09F03BFDA86E816800299A

:105590000CD02299A9716946611A8268C9B268461D

:1055A00090475020405B00F0D9FCE86425B0F0BD86

:1055B00010B504001AD00020606660789F22104069

:1055C00060700901C0B22170800709D4A06E4168E3

:1055D00000290BD0012088476078FB2108406070CB

:1055E0006078400704D47D20C00002E0002010BD98

:1055F000002000F0B3FCE064012010BD1CB504469F

:1056000000780007000F15D021464031012831D025

:1056100005280ED1A078002846D0012809D1E078CD

:10562000002806D12079012803D1088A00F096FCD1

:10563000E0641CBD60784106FBD5C0060ED4A3A073

:1056400003C80191009005236A4650212046FFF7C8

:1056500053FF607810210843607005E000231A466C

:1056600010212046FFF748FF207800090001401C68

:1056700020701CBDE078002807D0088A00F06EFC7E

:10568000E064207800090001F2E720780223000995

:105690000001401D20708FA0006800906A46122112

:1056A0002046FFF729FF1CBDE078002807D0E36EF5

:1056B0000D2811D0002211460D2098471CBDA07A5C

:1056C000617A0002401869460880E36E002BF5D02D

:1056D0000222104698471CBD002211460E20ECE71E

:1056E0001CB5044600780007000F18D0234640334D

:1056F000012833D021466431052846D006280DD133

:10570000E36E002B06D0E07800286FD0002211460F

:105710000C20984720780009000120701CBD60789B

:105720004106FBD5C0060ED468A003C801910090C5

:1057300005236A4650212046FFF7DEFE60781021DF

:105740000843607005E000231A4610212046FFF749

:10575000D3FE207800090001401CDEE7E078002835

:1057600004D0188A00F0FAFBE064D3E72078022323

:1057700000090001401D207056A0006800906A4694

:1057800012212046FFF7B8FE1CBDA07800280CD0DF

:105790000128F9D1E0780028F6D120790128F3D149

:1057A000188A00F0DBFBE0641CBDA07A627A00027C

:1057B000801882B2E078002807D0E36E0D2810D060

:1057C000002211460D2098471CBD9A840A460223E8

:1057D00020212046FFF790FE207800090001801D5F

:1057E0009BE7002211460E20EDE7FFE7022208208A

:1057F0008FE71CB5044600780107090F17D0204633

:105800004030012933D0052940D006290ED1A17896

:10581000002963D0012909D1E178002906D1217935

:10582000012903D1008A00F099FBE0641CBD607877

:105830004106FBD5C0060ED424A003C801910090F8

:1058400005236A4650212046FFF756FE6078102156

:105850000843607005E000231A4610212046FFF738

:105860004BFE207800090001401C20701CBDE1782F

:1058700000290ED12078012300090001401D20706D

:1058800015A000686A46FE21009019E0E178002921

:1058900007D0008A00F062FBE06420780009000174

:1058A000E3E72078082100090001801D207060785E

:1058B00002230843607007A000686A461221009026

:1058C0002046FFF719FE1CBD34C40000FA143572DF

:1058D000020000000005000001000000E178082936

:1058E00015D0A17A627A090289188184008A00F0B1

:1058F00035FBE0642078000900012070E36E002B86

:10590000E1D002222146643110469847DBE7008A45

:1059100000F024FBE0642078000900012070E36EB1

:10592000002BD0D0002211460D20EEE7FEB5044634

:105930000078224601076432090F26464036171FB9

:10594000FA4D00920B0006F043FA080525335BAAD6

:10595000D3FEFC24607841061BD5C0060ED4F44863

:10596000052303C8019100906A4650212046FFF7A5

:10597000C3FD607810210843607005E000231A46DB

:1059800010212046FFF7B8FD207800090001401CD7

:105990002070FEBDE07800280DD100231A46232197

:1059A0002046FFF7A9FD207800090001801CEFE7E1

:1059B000E178002907D0308A00F0D0FAE06420783E

:1059C00000090001E4E700090001C01C2070D7486D

:1059D0002821203806F00FF901206870B878D34AE2

:1059E000C007C00FA870787828230107C90FE97095

:1059F00000092871203A26212046FFF77DFDFEBDD3

:105A0000A17800293ED1E1780029F8D1B978019137

:105A1000C90713D0308A00F0A1FAE06420780009A9

:105A200000012070A07A617A00024018B084E36E11

:105A3000002BE4D002220320009921E0000900019C

:105A4000001D2070B9482821203806F0D4F8102015

:105A500068700198B54AC007C00FA87078782823ED

:105A60000107C90FE97000092871203A2621204654

:105A7000FFF742FDE36E002BC1D000221146042047

:105A80009847FEBD0129FCD1E0780028F9D12079A2

:105A90000128F6D1308A00F061FAE064FEBDA178F9

:105AA0000029EFD1E1780029F8D100090001401D5B

:105AB00020709E482821203806F09DF80820687044

:105AC000B8789A4AC007C00FA870787828230107D1

:105AD000C90FE97000092871203A26212046FFF7F6
